:020000040800F2
:10000000A806002045010008010D0008550C000855
:10001000910C000899080008431E00080000000029
:10002000000000000000000000000000010F0008B8
:10003000490A000800000000890D0008151000089A
:100040005F0100085F0100085F0100085F01000810
:100050005F0100085F0100085F0100085F01000800
:100060005F0100085F0100085F0100085F010008F0
:100070005F0100085F0100085F0100085F010008E0
:100080005F0100085F0100085F0100085F010008D0
:100090005F0100085F0100085F0100085F010008C0
:1000A0005F0100085F0100085F0100085F010008B0
:1000B000B91200085F010008011400085F01000880
:1000C0005F0100085F0100085F0100085F01000890
:1000D0005F0100082D1A0008B51A00085F0100082A
:1000E0005F0100085F0100085F0100085F01000870
:1000F0005F0100085F0100085F0100085F01000860
:100100005F0100085F0100085F0100085F0100084F
:100110005F0100085F0100085F0100085F0100083F
:100120005F0100085F0100085F0100085F0100082F
:10013000DFF80CD000F010FB0048004759280008F9
:10014000A80600200648804706480047FEE7FEE76D
:10015000FEE7FEE7FEE7FEE7FEE7FEE7FEE7FEE777
:100160001910000831010008421C10F8011B002979
:10017000FBD1801A704710B5002200E0521C835C4E
:100180008C5CA34201D1002BF8D1D8B2E1B2401A65
:1001900010BD80EA010210B502F00043400022D0F9
:1001A0004A001FD0010E01EB1261C0F35600C2F3EA
:1001B000560240F4000042F40002A0FB02200004BA
:1001C0007F39140400D0401C50EA124001D4400092
:1001D000491EC2B20C0604EBD010401C4008802A15
:1001E00002D003E0002010BD20F00100002900DA59
:1001F0000020184310BD30B480EA010202F000452F
:1002000030F0004221F0004013D090B1C30DD40D66
:10021000C2F31601C0F31600E41A41F4000140F4E1
:1002200000027D34914201D3641C00E04900002C9F
:1002300002DA30BC002070474FF4000000239142E6
:1002400001D3891A034340084FEA4101F7D151B164
:10025000914202D14FF0004105E002D24FF001017E
:1002600001E06FF0010103EBC450284430BC00F002
:1002700084B896230022114600F088B800F00042AE
:1002800020F00040C10DC0F3160040F400007F29AB
:1002900001DA00207047962903DCC1F19601C840BD
:1002A00001E096398840002AF4D04042704720F09F
:1002B0000040C10DC0F3160040F400007F2901DAB0
:1002C00000207047962903DCC1F19601C8407047B1
:1002D0009639884070470000002801DBC0F10040DB
:1002E000002901DBC1F100418842704730B50B465F
:1002F000014600202022012409E021FA02F59D4256
:1003000005D303FA02F5491B04FA02F52844151E29
:10031000A2F10102F1DC30BD2DE9F05F05460020BD
:1003200092469B4688460646814640241BE0284666
:1003300041464746224600F030FA53465A46C01A14
:10034000914110D311461846224600F017FA2D1A93
:1003500067EB01084F4622460120002100F00EFA0B
:1003600017EB00094E41201EA4F10104DFDC4846D2
:1003700031462A464346BDE8F09F0029A8BF704792
:10038000401C490008BF20F00100704710B4B0FACB
:1003900080FC00FA0CF050EA010404BF10BC704766
:1003A00049B1CCF1200421FA04F411FA0CF118BF80
:1003B000012121430843A3EB0C01CB1D4FEA00614F
:1003C0004FEA102042BF002010BC704700EBC35022
:1003D00010440029A4BF10BC7047401C490008BF4E
:1003E00020F0010010BC70472DE9FE4F804681EAE5
:1003F0000300C00F0C46009021F0004123F000459F
:10040000B8EB0200A94105D24046214690461C4661
:100410000B46024623F00040104347D0270DC7F398
:100420000A00C3F30A510290401A019040286BDA87
:10043000C3F3130040F4801B0098924620B10023C0
:10044000D2EB030A63EB0B0B01985946C0F1400253
:10045000504600F093F906460D4650465946019A1B
:1004600000F0ABF910EB08006141002487EA11525B
:1004700084EAE7731A4340D0009A62B3019A012AD2
:100480004FEA075215DC001B61EB02014FF00042FE
:1004900002EA0752CDE90042001C41F580113246C4
:1004A0002B4600F0ABF903B0BDE8F08F4046214683
:1004B000F9E7001B61EB0201001C41F580130018F5
:1004C0005B412018A2F5001747EB030140EAD57005
:1004D000B6196D4111E06D084FEA360645EAC07560
:1004E0004FEA0752001B61EB0201001C41F580112D
:1004F00049084FEA30000019514132462B4603B0FB
:10050000BDE8F04F00F06BB90098012240000023D5
:10051000D0EB020263EBE073009821464FEAE074EF
:10052000B8EB000061EB0401E9E783F000435BE70F
:1005300081F0004158E72DE9FE4F81EA030404F001
:10054000004421F0004100944FF0000B23F00043E1
:1005500050EA01045ED052EA03045BD0C3F30A54AC
:10056000C1F30A552C44A4F2F3340194A0FB0254C5
:10057000C1F3130141F48011C3F3130343F4801357
:1005800001FB024400FB034E840A970A44EA8154AB
:1005900047EA8357A4FB076802958D0A05FB078588
:1005A0004FEA932C04FB0C542705029D4FEA065892
:1005B00047EA1637B5EB08056EEB070C870E920E6F
:1005C00047EA811742EA8312A7FB0201B6EB0B014F
:1005D00064EB00042B0D43EA0C335E1844EB1C5013
:1005E000DA465146E7FB0201C5F313044FEA0B3329
:1005F00043EA14534FEA0432019C43EA0603A4F190
:100600000C040294009CCDE900B400F0F7F803B0AC
:10061000BDE8F08F00200146F9E72DE9F04D81EAB1
:10062000030404F0004B21F0004514464FF0000A8B
:1006300023F0004150EA050220D054EA01021DD007
:10064000C5F30A570246C5F31303C1F31300C1F300
:100650000A5640F4801543F48013A7EB0608101BDC
:10066000D64608F2FD3873EB050002D308F1010805
:1006700001E092185B41B8F1000F03DA0020014657
:10068000BDE8F08D00204FF48011064684460EE050
:10069000171B73EB050705D3121B63EB050306431A
:1006A0004CEA010C49084FEA300092185B4150EACD
:1006B0000107EDD152EA030012D082EA040083EA76
:1006C0000501084305D0101BAB4106D201220023CF
:1006D00006E000224FF0004302E06FF001025310E9
:1006E0001AEB06004CEB085110EB0A0041EB0B0132
:1006F000BDE8F04D00F073B8C1F30A52C1F3130125
:1007000040F2FF3341F480119A4202DA00200146A0
:10071000704740F233439A42A2F2334202DC524223
:1007200000F03BB800F02AB830B5041E71F10004A7
:1007300004DB4FF00044404264EB0101141E73F1EE
:10074000000405DB1C464FF00043524263EB0403F8
:10075000994208BF904230BD064C074D06E0E06864
:1007600040F0010394E8070098471034AC42F6D3F8
:10077000FFF7E2FC9C2B0008BC2B0008202A04DBBE
:10078000203A00FA02F1002070479140C2F12003A4
:1007900020FA03F3194390407047202A04DB203AE3
:1007A00021FA02F00021704721FA02F3D040C2F191
:1007B00020029140084319467047202A06DBCB17D8
:1007C000203A41FA02F043EAE07306E041FA02F30C
:1007D000D040C2F12002914008431946704710B53D
:1007E000141E73F1000408DA401C41F10001921854
:1007F0005B411A4301D120F0010010BD2DE9F04DFD
:1008000092469B4611B1B1FA81F202E0B0FA80F251
:1008100020329046FFF7B2FF04460F4640EA0A0036
:1008200041EA0B0153465A46084313D0114653EA96
:10083000010019D0C8F140025046FFF7AEFF05464F
:100840000E46504659464246FFF798FF084305D0EA
:10085000012004E020463946BDE8F08D0020054324
:1008600046EAE0762C4337430A986305E40AA0EB96
:1008700008000022FD0A44EA47540A3002D500204D
:100880000146E9E7010510196941DDE9084500194C
:100890006941BDE8F04DA2E700BFFEE721B1026863
:1008A00042F00102026004E002684FF6FE731A4053
:1008B0000260704701684FF6FE721140016000212E
:1008C000016041608160C1604B49884208D14A495A
:1008D0000839496841F00F01474A083A51608AE0F7
:1008E00045491431884208D143490839496841F0E3
:1008F000F001414A083A51607DE03F492831884281
:1009000008D13D490839496841F470613A4A083ACA
:10091000516070E038493C31884208D13649083985
:10092000496841F47041344A083A516063E0324901
:100930005031884208D130490839496841F4702162
:100940002D4A083A516056E02B496431884208D15B
:1009500029490839496841F47001274A083A516029
:1009600049E025497831884208D123490839496846
:1009700041F07061204A083A51603CE01F498842CA
:1009800006D1011F096841F00F01021F116032E01A
:100990001A491431884208D11849091F096841F0E1
:1009A000F001164A121F116025E0144928318842CF
:1009B00008D11249091F096841F470610F4A121FDA
:1009C000116018E00D493C31884208D10B49091FDC
:1009D000096841F47041094A121F11600BE0074990
:1009E0005031884207D10549091F096841F4702137
:1009F000024A121F116070470800024008040240BA
:100A00000146486880B2704710B50022026847F678
:100A1000F0739A430C6A8B6823430C6923434C6937
:100A200023438C692343CC6923434C6A23438C6A58
:100A300023431A430260CB6843600B6883604B68B2
:100A4000C36010BD4160704770472DE9F041024618
:100A500000250026002000230024002791F803C071
:100A60000CF00F0591F803C00CF0100CBCF1000F56
:100A700003D091F802C04CEA050591F800C0BCF122
:100A8000000F31D0146800202BE04FF0010C0CFA5D
:100A900000F3B1F800C00CEA03069E4220D18300A7
:100AA0004FF00F0C0CFA03F7BC4305FA03FC4CEAB9
:100AB000040491F803C0BCF1280F06D14FF0010CDB
:100AC0000CFA00FCC2F814C00AE091F803C0BCF1B3
:100AD000480F05D14FF0010C0CFA00FCC2F810C011
:100AE000401C0828D1D31460B1F800C0BCF1FF0F3E
:100AF00034DD546800202EE000F1080C4FF00108AE
:100B000008FA0CF3B1F800C00CEA03069E4221D1AA
:100B100083004FF00F0C0CFA03F7BC4305FA03FCFB
:100B20004CEA040491F803C0BCF1280F05D100F190
:100B3000080C08FA0CF8C2F8148091F803C0BCF154
:100B4000480F07D100F1080C4FF0010808FA0CF823
:100B5000C2F81080401C0828CED35460BDE8F08154
:100B60004161704701617047F8B50A2601250121EE
:100B7000142000F03BF91020ADF8000048208DF85B
:100B8000030003208DF8020069462A48FFF75DFF45
:100B90001020ADF800008DF8030003208DF802004E
:100BA00069462548FFF751FF10212348FFF7DAFF78
:100BB0004FF4165000F0B0FF32E001201F490860EA
:100BC0000A2001F0E9FD1EA001F016FF00201E49D9
:100BD000C1F8900100240AE01C48008800F400409D
:100BE00000B106E0052001F0D7FD601CC4B20A2C5C
:100BF000F2DB00BF1548008800F4004080B11348C4
:100C00000578002011490880042D09D1104800788A
:100C10004F2805D10E4840784B2801D1002504E02B
:100C20003000A6F10101CEB2C7D100BF06B901253F
:100C30002846F8BD00080140001001409001224202
:100C400041540D0A00000000000022422C00002048
:100C50000801002000BFFEE708B50121102000F0C8
:100C6000C5F84FF40050ADF8000010208DF80300D7
:100C700003208DF8020069460448FFF7E6FE4FF4B2
:100C800000510248FFF76EFF08BD00000010014050
:100C900000BFFEE7F0B58DB000260AE017480068F7
:100CA00001F0A0FD4DF82600012001F075FD701C3B
:100CB000C6B20D2EF2DB00251BE0002413E0621CFF
:100CC0005DF822105DF82400FFF706FB09D25DF8FD
:100CD0002470601C5DF820004DF82400601C4DF865
:100CE0002070601CC4B2C5F10C00A042E7DA681C99
:100CF000C5B20C2DE1DD06980DB0F0BD3C00002022
:100D00007047000070B5002100230F22C47804B39F
:100D1000154C246804F4E064C4F5E064210AC1F1D0
:100D20000403CA40447804FA03F184781440214350
:100D300009010E4C0678A155047804F01F05012422
:100D4000AC4005786D11AD0005F1E025C5F8004116
:100D500009E0047804F01F050124AC40044D067836
:100D6000761145F8264070BD0CED00E000E400E08F
:100D700080E100E002490143024A1160704700002F
:100D80000000FA050CED00E07047000029B1064AAA
:100D900052690243044B5A6104E0034A5269824398
:100DA000014B5A61704700000010024029B1064A09
:100DB000D2690243044BDA6104E0034AD2698243F8
:100DC000014BDA61704700000010024029B1064A69
:100DD00012690243044B1A6104E0034A1269824318
:100DE000014B1A61704700000010024029B1064A09
:100DF00092690243044B9A6104E0034A9269824378
:100E0000014B9A61704700000010024029B1064A68
:100E1000D2680243044BDA6004E0034AD26882439A
:100E2000014BDA60704700000010024030B500212D
:100E30000022002400232D4D6D6805F00C0121B126
:100E4000042905D0082923D105E0294D056022E0B9
:100E5000274D05601FE0254D6D6805F47012234D88
:100E60006D6805F48034022505EB92421CB9214DD2
:100E7000554305600BE01D4D6D6805F400351DB14F
:100E80001C4D5543056002E0194D5543056002E0D5
:100E9000174D056000BF00BF144D6D6805F0F001EF
:100EA0000909154D6B5C0568DD4045600F4D6D68A7
:100EB00005F4E061090A104D6B5C4568DD40856012
:100EC0000A4D6D6805F46051C90A0B4D6B5C4568AD
:100ED000DD40C560054D6D6805F44041890B074D47
:100EE0006B5CC568B5FBF3F5056130BD00100240D1
:100EF00000127A0000093D000000002010000020D0
:100F0000704710B500F002F810BD00000CB50020CD
:100F1000019000903348006840F480303149086007
:100F200000BF3048006800F4003000900198401C79
:100F30000190009818B90198B0F5A06FF1D1294837
:100F4000006800F4003010B10120009001E00020A2
:100F500000900098012843D12348006840F0100019
:100F6000214908600846006820F003000860084630
:100F7000006840F0020008601A484068194948605B
:100F80000846406848600846406840F48060486011
:100F90000846406820F47C1048600846406840F4E9
:100FA000E81048600846006840F08070086000BFA4
:100FB0000C48006800F000700028F9D0094840682B
:100FC00020F00300074948600846406840F00200EE
:100FD000486000BF0348406800F00C000828F9D1C1
:100FE0000CBD00000010024000200240042808D17F
:100FF0004FF0E021096941F004014FF0E022116156
:1010000007E04FF0E021096921F004014FF0E022F0
:10101000116170477047000010B51348006840F038
:1010200001001149086008464068104908400E490F
:101030004860084600680E4908400B4908600846A9
:10104000006820F4802008600846406820F4FE0014
:1010500048604FF41F008860FFF753FF4FF00060B7
:101060000449086010BD0000001002400000FFF8B5
:10107000FFFFF6FE08ED00E0F0B50C461546002235
:101080000021068C4FF6FE773E400684028B018CD1
:101090004FF60C7632407E1C06EA03162E4332438E
:1010A000104EB0420ED0104EB0420BD0B0F1804F77
:1010B00008D00E4EB04205D00D4EB04202D00D4EBB
:1010C000B04206D14FF6FD76314044F0010631437F
:1010D00005E04FF6F576314044F0010631430283D6
:1010E0000184F0BD002C01400034014000040040A8
:1010F00000080040000C0040F0B50C4615460022E8
:1011000000210026078C4FF6EF7C07EA0C070784C6
:10111000028B018C4FF6FF7707EA041640F6FF4773
:101120003A404FF6FF7707EA03373A434FF6FF7727
:1011300007EA05273A43114FB8420ED0104FB84284
:101140000BD0B0F1804F08D00E4FB84205D00E4FF3
:10115000B84202D00D4FB84206D14FF6DF77394082
:1011600046F01007394305E04FF65F77394044F009
:101170001007394302830184F0BD0000002C0140B8
:10118000003401400004004000080040000C004012
:10119000F0B50C461546002200210026078C4FF6BC
:1011A000FF6C07EA0C070784828B018C4FF6FF77F0
:1011B00007EA04264FF60C773A404FF6FF7707EA26
:1011C00003172F433A43114FB8420ED0104FB84285
:1011D0000BD0B0F1804F08D00E4FB84205D00E4F63
:1011E000B84202D00D4FB84206D14FF6FF573940F2
:1011F00046F48077394305E04FF2FF57394044F415
:101200008077394382830184F0BD0000002C0140C7
:10121000003401400004004000080040000C004081
:10122000F0B50C461546002200210026078C4EF62C
:10123000FF7C07EA0C070784828B018C4FF6FF774F
:1012400007EA043640F6FF473A404FF6FF7707EAD1
:1012500005273A434FF6FF7707EA03373A43114F22
:10126000B8420ED0104FB8420BD0B0F1804F08D02A
:101270000E4FB84205D00E4FB84202D00D4FB842C3
:1012800006D14DF6FF77394046F48057394305E0E3
:1012900047F6FF57394044F480573943828301842D
:1012A000F0BD0000002C014000340140000400406B
:1012B00000080040000C004010B50221480700F073
:1012C00024F9E8B11148007860B900214FF080405E
:1012D00000F0F8FA0221480700F0D4F901200B4988
:1012E00008700DE04FF0804000F00CF908490860EC
:1012F00000214FF0804000F0C5F90020034908703C
:1013000003214FF0804000F0DFF810BD38000020CE
:101310003C00002030B589B005460C460121022072
:10132000FFF744FD01210420FFF760FD01210820A3
:10133000FFF75CFDC020ADF8200018208DF82300D9
:1013400003208DF8220008A92A48FFF77EFB03201E
:10135000ADF8200018208DF8230003208DF822001E
:1013600008A92548FFF771FBADF81850ADF81440F7
:101370000020ADF81A00ADF8160005A91F4800F0CE
:10138000CFFA7020ADF804000120ADF8060000206F
:10139000ADF80A00ADF80C0001A9184800F026F9D4
:1013A00001A9164800F080F901A9144800F0DCF901
:1013B00001A9124800F032FA0821104800F06BF938
:1013C00008210E4800F0C2F908210C4800F01CFA70
:1013D00008210A4800F060FA0121084800F068F886
:1013E0000121064800F073F80121044800F07BF861
:1013F00009B030BD00080140000C0140000400406D
:1014000010B50121084800F080F860B10748008855
:1014100040F40040054908800121034800F054F8D9
:10142000002000F031F810BD000800402C00002022
:101430007FB505460C4601210420FFF7B7FCADF847
:101440000450ADF800400020ADF80600ADF80200F1
:1014500069460C4800F064FA01221146094800F080
:10146000BBF81E208DF80C0001208DF80D00022025
:101470008DF80E0001208DF80F0003A8FFF742FC45
:101480007FBD00000008004010B5044644B10021B3
:10149000064800F017FA0121044800F018F803E0AC
:1014A0000021024800F013F810BD000000080040C1
:1014B00021B1028842F08002028004E002884FF6E7
:1014C0007F731A4002807047CA430282704721B17D
:1014D000028842F00102028004E002884FF6FE73A7
:1014E0001A400280704731B1B0F8442042F4004203
:1014F000A0F8442005E0B0F84420C2F30E02A0F8A2
:10150000442070470146888C704730B50246002061
:1015100000230024158A05EA0103958905EA0104E0
:1015200013B10CB1012000E0002030BD70B50546BC
:101530000C46244885420ED0234885420BD0B5F195
:10154000804F08D02148854205D02148854202D0ED
:101550002048854200D100E000BF208850B923898F
:10156000A28861882846FFF787FDE188284600F0B9
:10157000ABF925E0208804280AD12389A288618854
:101580002846FFF7B9FDE188284600F0A6F917E0E4
:10159000208808280AD12389A28861882846FFF775
:1015A000F7FDE188284600F0A5F909E02389A28823
:1015B00061882846FFF734FEE188284600F0A3F949
:1015C00070BD0000002C01400034014000040040C8
:1015D00000080040000C00401AB183890B4383814E
:1015E00002E083898B4383817047000070B500243B
:1015F00000220023058C4FF6FE7635400584028CD0
:101600008388048B4FF68F752C40B51E2C400D88B7
:101610002C43751E2A400D892A434D882A43144DB8
:10162000A8420BD0134DA84208D0134DA84205D0B4
:10163000124DA84202D0124DA84213D14FF6F775B1
:101640002A404D892A434FF6FB752A408D882A434C
:101650004FF6FF652B404FF6FF552B408D892B43EE
:10166000CD892B4383800483CD888586028470BD19
:10167000002C014000340140004001400044014082
:10168000004801400A460021018C4FF6FD731940C5
:101690001143018470470A460021018B4FF6F7730E
:1016A000194011430183704770B5002400220023C4
:1016B000058C4FF6EF7635400584028C8388048BC9
:1016C00048F6FF752C404FF6FF452C400D884FF62D
:1016D000FF7606EA05252C434FF6DF752A400D8973
:1016E00006EA05152A434D8806EA05152A43154DD5
:1016F000A84202D0144DA8421DD14FF67F752A4052
:101700004D894FF6FF7606EA05152A434FF6BF7559
:101710002A408D8806EA05152A434FF6FF352B40EF
:101720004FF2FF752B408D8906EA85052B43CD8945
:1017300006EA85052B4383800483CD8805870284D0
:1017400070BD0000002C0140003401400A46002119
:10175000018B4FF2FF7319404FF6FF7303EA022328
:10176000194301837047000070B500240022002354
:10177000058C4FF6FF6635400584028C8388848B88
:101780004FF68F752C404FF6FC752C400D882C437E
:101790004FF6FF552A400D894FF6FF7606EA0525DC
:1017A0002A434D8806EA05252A43154DA84202D052
:1017B000144DA8421DD14FF2FF752A404D894FF6B6
:1017C000FF7606EA05252A434FF6FF352A408D8825
:1017D00006EA05252A434EF6FF752B404DF6FF75A8
:1017E0002B408D8906EA05152B43CD8906EA0515A0
:1017F0002B4383808483CD888587028470BD00005D
:10180000002C0140003401400A460021818B4FF634
:10181000F7731940114381837047000070B50022AF
:1018200000230024058C4EF6FF7635400584038C9A
:101830008488828B48F6FF752A404FF6FF452A4080
:101840000D884FF6FF7606EA05252A434DF6FF750B
:101850002B400D8906EA05352B434D8806EA0535F0
:101860002B430B4DA84202D00A4DA84208D14BF69B
:10187000FF752C408D894FF6FF7606EA85152C43BF
:1018800084808283CD88A0F84050038470BD00001E
:10189000002C0140003401400A460021818B4FF2A8
:1018A000FF7319404FF6FF7303EA02231943818344
:1018B0007047818670470187704781877047A0F81D
:1018C0004010704781847047028B4FF6F3731A40C3
:1018D0000283028B0A4302837047028B4FF2FF336D
:1018E0001A400283028B4FF6FF7303EA01231A4367
:1018F00002837047828B4FF6F3731A408283828B88
:101900000A4382837047828B4FF2FF331A408283EF
:10191000828B4FF6FF7303EA01231A4382837047D9
:10192000002202881D4B98420ED01D4B98420BD0CE
:10193000B0F1804F08D01B4B984205D01A4B98420B
:1019400002D01A4B984204D14FF68F731A404B883D
:101950001A43174B984207D0164B984204D04FF6C3
:10196000FF431A40CB881A4302808B8883850B88FB
:1019700003850A4B98420BD0094B984208D00E4B76
:10198000984205D00D4B984202D00D4B984201D1A0
:101990000B7A03860123838270470000002C0140EC
:1019A000003401400004004000080040000C0040EA
:1019B000001000400014004000400140004401407D
:1019C0000048014070B58CB006460C461546012112
:1019D0000846FFF7DBF93046FEF76CFF01940295ED
:1019E0001020039000200490059080200690002095
:1019F0000790089009904FF480500A9000200B90B7
:101A000001A93046FFF700F80CB070BD70B5044670
:101A10000D4600212046FEF741FF29462046FFF7EC
:101A200011F801212046FEF739FF70BD10B540F2D4
:101A300025511D4800F044F910B31B4800F0FCF993
:101A4000C4B21A48008800F40040C8B9174800889A
:101A500000F4804060B10A2C03D0002013490880B4
:101A600020E01248008840F400401049088019E046
:101A70000D2C06D10D48008840F480400B490880A9
:101A800010E00A480088C0F30D0009490C540748CB
:101A90000088401C0549088008460088C72801DDE9
:101AA0000020088010BD00000038014034000020F4
:101AB000D001002010B540F22551134800F000F984
:101AC00000B3114800F0B8F9C4B210480088C82823
:101AD00012DA00210E48FFF7F5FE0C48008810B915
:101AE0000120FFF7D1FC094801880088401C074A03
:101AF00010800848445405E00448008840F4004041
:101B00000249088010BD0000004400402C00002065
:101B1000000800400801002010B586B004460121ED
:101B20000420FFF763F901214804FFF73FF92D482E
:101B300000F078F80420ADF8100003208DF81200B2
:101B400018208DF8130004A92748FEF77EFF08200F
:101B5000ADF8100004208DF8130004A92248FEF708
:101B600074FF00940020ADF80400ADF80600ADF855
:101B70000800ADF80C000C20ADF80A0069461948C1
:101B800000F0EEF801228021164800F041F8174AD3
:101B90001449091D1648FFF715FF0121114800F0EF
:101BA0002BF8012240F225510E4800F0B3F8262010
:101BB0008DF8140002208DF8150003208DF8160012
:101BC00001208DF8170005A8FFF79CF841F61F418A
:101BD0006320FFF72DFC002006490880FFF754FC26
:101BE00006B010BD00440040000801404000002045
:101BF000800002402C00002021B1828942F4005272
:101C0000828104E082894DF6FF731A408281704719
:101C10001AB1838A0B43838202E0838A8B438382D7
:101C20007047000010B504462048844209D10121C4
:101C30008803FFF7EBF800214FF48040FFF7E6F848
:101C400032E01B48844209D101214804FFF7BEF865
:101C500000214FF40030FFF7B9F825E01548844221
:101C600009D101218804FFF7B1F800214FF4802049
:101C7000FFF7ACF818E01048844209D10121C804EC
:101C8000FFF7A4F800214FF40020FFF79FF80BE0C6
:101C90000A48844208D101210805FFF797F800217E
:101CA0004FF48010FFF792F810BD0000003801409B
:101CB0000044004000480040004C004000500040FC
:101CC00070B50246002400230025002040F66A1665
:101CD000B14200D100BFC1F3421501F01F0301263C
:101CE00006FA03F3012D02D19689334006E0022D56
:101CF00002D1168A334001E0968A33400C12012645
:101D000006FA04F41688344013B10CB1012000E047
:101D1000002070BDF0B503460024002600250020F9
:101D200040F66A17B94200D100BF1846C1F3421409
:101D300001F01F06012707FA06F5012C01D10C302E
:101D400004E0022C01D1103000E014301AB1076811
:101D50002F43076002E00768AF430760F0BD000053
:101D60002DE9F04786B005460E460024A24600BF86
:101D7000A1460027B08900B100BF2F462C8A4CF63F
:101D8000FF700440F08804432C82AC894EF6F310B7
:101D90000440B08831890843718908430443AC8109
:101DA000AC8A4FF6FF400440B0890443AC8201A8DE
:101DB000FFF73CF81F48874202D1DDF810A001E090
:101DC000DDF80CA0A88900F4004040B10AEBCA007D
:101DD00000EB0A1031684900B0FBF1F807E00AEBAC
:101DE000CA0000EB0A1031688900B0FBF1F86420EA
:101DF000B8FBF0F004012009642101FB1089A889D7
:101E000000F4004040B1322000EBC900B0FBF1F01B
:101E100000F00700044308E0322000EB09106421C1
:101E2000B0FBF1F000F00F0004432C8106B0BDE8D8
:101E3000F08700000038014001468888C0F30800A0
:101E4000704700BFFEE7000037B514460846064B52
:101E50006A46214600F0CCF804466946002000F0AE
:101E60005EFC20463EBD00001F27000802E008C8B7
:101E7000121F08C1002AFAD170477047002001E004
:101E800001C1121F002AFBD1704700002DE9FF5F3E
:101E9000DDE90220010DDDF838B0024318D044F628
:101EA0001050A1F2FF3141430D140F98012820D0AA
:101EB000A5EB0B00401C5FEA000A4FF00004474E00
:101EC000DFF81C91A046504616D5CAF1000728E05D
:101ED0000F98012443A2012808D0002100980F9BED
:101EE000C0E90021C0E90243BDE8FF9F6FEA0B0192
:101EF000F4E7CBF10000DEE7074612E0F80707D071
:101F00002246334640464946FEF715FB8046894641
:101F10002246334610461946FEF70DFB04460E4690
:101F20007F10002FEAD1DDE90201BAF1000F42462D
:101F30004B4602DAFEF7FFFA01E0FEF76EFB0446BD
:101F40000E460022284BFEF7EFFB03D84FF0FF3080
:101F5000014607E00022254B20463146FEF744FAB1
:101F6000FEF7CAFB102409E0002C0ADB0A2200233A
:101F7000FEF7D2F9019B30321A55641E50EA010275
:101F8000F2D1641C019AC4F1110314440F9A012A7E
:101F900003D0012208430DD10AE0084304D00020F9
:101FA0004FF0110B0F9080E7A3EB0B056D1E0DE0BA
:101FB0005B4504DD4FF0000205F1010504E003DAA2
:101FC0004FF00002A5F10105002AECD000980F990E
:101FD000C0E90231C0E9004586E700000000244066
:101FE0000000F03F300000000000F0430000E03F40
:101FF0002DE9FF4F95B09B468946064600250FE226
:10200000252877D100242746F84A0121059400E0CD
:10201000044316F8013F203B01FA03F01042F7D1C8
:1020200030782A2811D06FF02F033078A0F13002D9
:10203000092A16D8059A44F0020402EB820203EB47
:1020400042021044761C0590EFE759F8042B0592E4
:10205000002A03DA504244F40054059044F002048C
:10206000761C30782E2816D116F8010F44F004049F
:102070002A280DD06FF02F023078A0F13003092B01
:1020800009D807EB870302EB4303C718761CF3E775
:1020900059F8047B761C30786C280FD006DC4C286D
:1020A00017D068280DD06A2814D104E0742810D005
:1020B0007A280FD10DE044F400140AE044F48014AF
:1020C00001E044F440147278824202D104F5801495
:1020D000761C761C307866280BD013DC582877D015
:1020E00009DC002875D04528F6D04628F4D04728CA
:1020F0001AD19DE118E0632835D0642879D065288D
:1021000012D195E1702873D008DC6728F1D06928D6
:102110006FD06E280DD06F2806D1B5E073282CD073
:10212000752875D0782874D05A46179990476D1C39
:1021300075E1C4F30250022809D003280DD0D9F864
:10214000001004280DD00D6009F1040967E1D9F8E9
:102150000010EA17C1E90052F6E7D9F800100D8027
:10216000F2E70D70F0E719F8041B8DF8001000205D
:102170008DF80100EA46012003E059F804AB4FF066
:10218000FF3061074FF0000102D40DE008F10101BA
:102190008846B9420FDA8045F8DB1AF808100029A2
:1021A000F4D108E008F1010188468142FADB1AF80F
:1021B00008100029F6D105985B46A0EB08072146D8
:1021C0003846179A00F094FA284400EB080507E017
:1021D0004DE029E10DE01AF8010B5A461799904796
:1021E000B8F10108F7D25B4621463846179A13E149
:1021F00042E00A220092C4F302524FF0000A022A7F
:1022000008D059F804CB032A4FEAEC710AD00DE04C
:1022100029E02AE009F1070121F00702F2E802C1F2
:10222000914609E00FFA8CFC4FEAEC71042A03D1C5
:102230004FFA8CFC4FEAEC71002907DA0A460021BC
:10224000DCF1000C61EB02012D2202E0220504D535
:102250002B228DF80420012203E0E20701D0202286
:10226000F7E7904659E00A2102E010220DE0102124
:102270004FF0000A00910BE010224FF0000A44F0EA
:1022800004040827009203E008224FF0000A00929D
:10229000C4F30252022A05D059F804CB0021032AC4
:1022A00008D009E009F1070121F00702F2E802C1B4
:1022B000914605E01FFA8CFC042A01D10CF0FF0CBA
:1022C0004FF00008220728D5702806D0009B83F025
:1022D000100353EA0A0305D00EE040228DF80420D3
:1022E000012208E05CEA010206D030228DF80420C9
:1022F0008DF8050002229046009B83F0080353EA04
:102300000A030AD15CEA010201D1620705D5302235
:102310008DF804204FF001087F1E582804D034A007
:1023200003900EA802900DE036A0F9E753466046F0
:10233000009AFDF7F1FF84460398825C0298401EE4
:10234000029002705CEA0100F0D1029806A9081A16
:1023500000F1200A600702D524F4803400E0012750
:10236000574502DDA7EB0A0000E0002000EB0A0160
:10237000009005984144401A0590E00306D45B465E
:102380002146179A059800F0B3F90544002706E0A6
:1023900001A85A46C05D179990476D1C7F1C4745A0
:1023A000F6DBE0030CD55B462146179A059800F052
:1023B0009FF9054404E030205A46179990476D1C58
:1023C0000099481E00900029F5DC08E00298029967
:1023D0005A460078491C0291179990476D1CBAF132
:1023E0000001AAF1010AF1DC65E100000928010001
:1023F000303132333435363738396162636465667B
:10240000000000003031323334353637383941423C
:10241000434445460000000000F058F90544761C8E
:10242000307800287FF4ECAD19B02846BDE8F08F75
:10243000620700D4062709F1070222F0070CFCE826
:102440000223E14603F000485FEA080C02D00FF2D5
:10245000702C0DE05FEA045C02D50FF2682C07E0F7
:102460005FEAC47C02D00FF2602C01E0AFF2700C86
:102470004FF0FF3823F00043CDF850C065280CD052
:1024800006DC452809D046281DD047283DD13DE02F
:10249000662818D067287ED138E00021112F01DB93
:1024A000112000E0781CCDE9000106A90EA8FFF775
:1024B000EDFCDDE90F010E9A03910021009207F176
:1024C000010A04914DE04FF000400097CDE9011062
:1024D00006A90EA8FFF7DAFCDDE90F0203920E9BB6
:1024E00011990022DDF80CA00093049211B9791C17
:1024F00000EB010AB7EB0A0004D4C0F1FF3007F18A
:10250000010A0490AAEB0700019044E0012F00DAD1
:1025100001270021112F01DD112000E03846CDE90F
:10252000000106A90EA8FFF7B1FCDDE90F010E9A24
:102530000391002104910092BA4621070CD403991B
:10254000514500DA8A46BAF1010F05DD009AAAF179
:102550000101515C302908D0B84202DA10F1040FB1
:1025600006DA0121CDE9011015E0AAF10101E9E740
:10257000002805DC049901440491AAEB000102E063
:10258000411C514500DD8A460499401A401C0190C7
:102590004FF000400290200704D40198504501DB21
:1025A000CDF8048000208DF84F0002980DF14F0700
:1025B000B0F1004F25D02B200E9002984FF002086A
:1025C00000280CDA404202902D200E9007E00A21EC
:1025D0000298FDF78BFE3031029007F8011DB8F12B
:1025E0000001A8F10108F2DC02980028EFD1791E61
:1025F0000E980870307800F0200040F0450007F891
:10260000020D12A8C01B00F107081498007800B151
:10261000012000EB0A01019801EBE07105984144AB
:10262000401A401E0590E00306D45B462146179AE7
:10263000059800F05DF805441498007818B15A46E2
:10264000179990476D1CE00324D55B462146179AE5
:10265000059800F04DF805441CE00498002807DBBD
:10266000DDE90301884203DD0098405C179901E031
:10267000179930205A469047049805F10105401CEF
:1026800004900198401E019004D12E205A461799BB
:1026900090476D1CBAF10001AAF1010ADDDC05E0EA
:1026A00017F8010B5A46179990476D1CB8F10001B5
:1026B000A8F10108F4DC5B462146179A0598ABE6C1
:1026C0002D0000002B000000200000002DE9F0414B
:1026D000044600251E461746880404D405E0394602
:1026E0002020B0476D1C641EF9D52846BDE8F08156
:1026F0002DE9F041044600251E469046C80301D549
:10270000302700E02027880404D505E041463846FC
:10271000B0476D1C641EF9D52846BDE8F0810A68F3
:10272000531C0B601070704710B50A210848FFF762
:10273000C2F84FF42F710648FFF7BBF80A2104488E
:10274000FFF7BDF84FF42F710148FFF7B6F810BD41
:102750000004004010B56FF00400FEF747FC0A4883
:1027600000680A49B0FBF1F0094908700846007892
:1027700000EB4001C1EBC0104FF6FF7101EAC00051
:102780000449088010BD00001400002000127A00E7
:10279000280000202A0000200146114A12884A43DE
:1027A0004FF0E0235A6100229A611A46126942F002
:1027B00001021A6100BF4FF0E022106900F001022F
:1027C0001AB100F48032002AF5D04FF0E0221269ED
:1027D00022F001024FF0E0231A6100229A61704753
:1027E0002A0000202DE9F041044602210C48FEF7A2
:1027F000B9F90120FFF7D0FF02210948FEF7B0F92F
:102800002046FDF736FD07460649FDF7C2FC0646A1
:102810000549FDF7F0FC05462846BDE8F0810000BB
:10282000000801400000AA4300409C4610B54FF448
:10283000FA710848FFF73DF80A210648FFF73BF810
:102840000A210448FFF739F84FF4FA710148FFF7FD
:1028500036F810BD000400400024002500260027A3
:102860004FF4A060FEF786FA4FF4165000F0E4F83B
:10287000FEF7F2F9FFF76EFF002140F28330FEF71A
:1028800049FDFEF771F900F027F960E03048008853
:1028900000F4004000282FD02D48067800202D4954
:1028A00088552DA12B48FDF766FC10B900F07AF889
:1028B00001252AA12748FDF75EFC10B9FFF734FF78
:1028C000012527A12348FDF756FC10B9FFF7AEFFFD
:1028D000012524A11F48FDF74EFC10B900F04CF86B
:1028E000012521A11B48FDF746FC10B900F070F846
:1028F0000025002016490880FEF7CCF980464046A6
:10290000FDF7BCFC04464046FDF7D1FCC7B2394692
:1029100016A000F071F80A2C0EDC6DB100F058F82A
:102920004FF47A70FFF738FFFFF780FF4FF4FA702B
:10293000FFF732FF00F036F80E48006808B90120B2
:1029400000E000200B4908606420FFF725FF9DE7A9
:102950002C0000200801002046000000420000007A
:102960004C0000005200000053000000256420636A
:102970006D0D0A00B401224210B50A210848FEF785
:1029800098FF4FF4FA710648FEF795FF4FF4FA717D
:102990000348FEF792FF0A210148FEF790FF10BDA1
:1029A0000004004010B50A210848FEF782FF4FF4EA
:1029B0002F710648FEF77FFF0A210448FEF77DFFCE
:1029C0004FF42F710148FEF77AFF10BD000400405C
:1029D00010B50A210748FEF76CFF0A210548FEF7EB
:1029E0006AFF0A210348FEF768FF0A210148FEF743
:1029F00066FF10BD000400400FB438B505A8009074
:102A00000B48009A0499FFF71FFA0020009000BFBE
:102A10000848FDF7F5FF0028FAD10548FDF7A4FBAB
:102A2000C4B221460348FEF7F1FF38BC5DF814FB41
:102A3000400000208000024010B586B0044601210D
:102A400044F20400FEF7D2F94FF40070ADF8140020
:102A500003208DF8160018208DF8170005A91C48D2
:102A6000FDF7F3FF4FF48060ADF8140004208DF8FB
:102A7000170005A91648FDF7E8FF25208DF800008E
:102A800003208DF801008DF8020001208DF803006D
:102A90006846FEF737F901940020ADF80800ADF85C
:102AA0000A00ADF80C00ADF810000C20ADF80E00D7
:102AB00001A90848FFF754F9012240F225510548C1
:102AC000FFF728F901210348FFF796F806B010BD7B
:102AD000000801400038014000B585B001210846DA
:102AE000FEF764F901210420FEF780F90120ADF81A
:102AF000100028208DF8130004A92648FDF7A5FF33
:102B000001212448FEF72CF80220ADF81000102017
:102B10008DF8130003208DF8120004A91D48FDF75D
:102B200094FF4FF6FF70ADF808004720ADF80400A1
:102B30000020ADF80A00ADF8060001A94FF0804072
:102B4000FEF7EEFE002014490880488001208880AE
:102B50000020C88008814FF08040FEF7E7FC1C2071
:102B60008DF8000002208DF8010000208DF8020091
:102B700001208DF803006846FEF7C4F80122032106
:102B80009007FEF729FD01218807FEF7A0FC05B09C
:102B900000BD00000008014098020020BC2B000886
:102BA00000000020400000006C1E0008FC2B000804
:102BB00040000020680600007C1E000800000000A5
:102BC00001020304010203040607080902040608BF
:102BD00000A24A04000000000000000001020304FB
:102BE00006070809000000000000000000000000C7
:0C2BF000000000000000000000000000D9
:0400000508000131BD
:00000001FF
